{
  "_format": "hh-sol-artifact-1",
  "contractName": "MockUniswapRouter",
  "sourceName": "contracts/MockUniswapRouter.sol",
  "abi": [
    {
      "inputs": [
        {
          "internalType": "address",
          "name": "_WETH",
          "type": "address"
        }
      ],
      "stateMutability": "nonpayable",
      "type": "constructor"
    },
    {
      "inputs": [],
      "name": "WETH",
      "outputs": [
        {
          "internalType": "address",
          "name": "",
          "type": "address"
        }
      ],
      "stateMutability": "view",
      "type": "function"
    },
    {
      "inputs": [
        {
          "internalType": "uint256",
          "name": "amountIn",
          "type": "uint256"
        },
        {
          "internalType": "address[]",
          "name": "path",
          "type": "address[]"
        }
      ],
      "name": "getAmountsOut",
      "outputs": [
        {
          "internalType": "uint256[]",
          "name": "amounts",
          "type": "uint256[]"
        }
      ],
      "stateMutability": "view",
      "type": "function"
    },
    {
      "inputs": [
        {
          "internalType": "uint256",
          "name": "amountOutMin",
          "type": "uint256"
        },
        {
          "internalType": "address[]",
          "name": "path",
          "type": "address[]"
        },
        {
          "internalType": "address",
          "name": "to",
          "type": "address"
        },
        {
          "internalType": "uint256",
          "name": "deadline",
          "type": "uint256"
        }
      ],
      "name": "swapExactETHForTokens",
      "outputs": [
        {
          "internalType": "uint256[]",
          "name": "amounts",
          "type": "uint256[]"
        }
      ],
      "stateMutability": "payable",
      "type": "function"
    },
    {
      "inputs": [
        {
          "internalType": "uint256",
          "name": "amountIn",
          "type": "uint256"
        },
        {
          "internalType": "uint256",
          "name": "amountOutMin",
          "type": "uint256"
        },
        {
          "internalType": "address[]",
          "name": "path",
          "type": "address[]"
        },
        {
          "internalType": "address",
          "name": "to",
          "type": "address"
        },
        {
          "internalType": "uint256",
          "name": "deadline",
          "type": "uint256"
        }
      ],
      "name": "swapExactTokensForETH",
      "outputs": [
        {
          "internalType": "uint256[]",
          "name": "amounts",
          "type": "uint256[]"
        }
      ],
      "stateMutability": "nonpayable",
      "type": "function"
    },
    {
      "inputs": [
        {
          "internalType": "uint256",
          "name": "amountIn",
          "type": "uint256"
        },
        {
          "internalType": "uint256",
          "name": "amountOutMin",
          "type": "uint256"
        },
        {
          "internalType": "address[]",
          "name": "path",
          "type": "address[]"
        },
        {
          "internalType": "address",
          "name": "to",
          "type": "address"
        },
        {
          "internalType": "uint256",
          "name": "deadline",
          "type": "uint256"
        }
      ],
      "name": "swapExactTokensForTokens",
      "outputs": [
        {
          "internalType": "uint256[]",
          "name": "amounts",
          "type": "uint256[]"
        }
      ],
      "stateMutability": "nonpayable",
      "type": "function"
    }
  ],
  "bytecode": "0x608060405234801561001057600080fd5b5060405161069938038061069983398101604081905261002f91610054565b600080546001600160a01b0319166001600160a01b0392909216919091179055610084565b60006020828403121561006657600080fd5b81516001600160a01b038116811461007d57600080fd5b9392505050565b610606806100936000396000f3fe60806040526004361061004a5760003560e01c806318cbafe51461004f57806338ed1739146100855780637ff36ab5146100a5578063ad5c4648146100b8578063d06ca61f146100f0575b600080fd5b34801561005b57600080fd5b5061006f61006a3660046103d6565b610110565b60405161007c9190610446565b60405180910390f35b34801561009157600080fd5b5061006f6100a03660046103d6565b6101b7565b61006f6100b336600461048a565b61022e565b3480156100c457600080fd5b506000546100d8906001600160a01b031681565b6040516001600160a01b03909116815260200161007c565b3480156100fc57600080fd5b5061006f61010b3660046104f0565b6102d4565b60608367ffffffffffffffff81111561012b5761012b61053c565b604051908082528060200260200182016040528015610154578160200160208202803683370190505b509050868160008151811061016b5761016b610552565b60209081029190910101526101826103e88861057e565b816001835161019191906105a0565b815181106101a1576101a1610552565b6020026020010181815250509695505050505050565b60608367ffffffffffffffff8111156101d2576101d261053c565b6040519080825280602002602001820160405280156101fb578160200160208202803683370190505b509050868160008151811061021257610212610552565b60200260200101818152505086816001835161019191906105a0565b60608367ffffffffffffffff8111156102495761024961053c565b604051908082528060200260200182016040528015610272578160200160208202803683370190505b509050348160008151811061028957610289610552565b60209081029190910101526102a0346103e86105b9565b81600183516102af91906105a0565b815181106102bf576102bf610552565b60200260200101818152505095945050505050565b60608167ffffffffffffffff8111156102ef576102ef61053c565b604051908082528060200260200182016040528015610318578160200160208202803683370190505b509050838160008151811061032f5761032f610552565b60200260200101818152505083816001835161034b91906105a0565b8151811061035b5761035b610552565b6020026020010181815250509392505050565b60008083601f84011261038057600080fd5b50813567ffffffffffffffff81111561039857600080fd5b6020830191508360208260051b85010111156103b357600080fd5b9250929050565b80356001600160a01b03811681146103d157600080fd5b919050565b60008060008060008060a087890312156103ef57600080fd5b8635955060208701359450604087013567ffffffffffffffff81111561041457600080fd5b61042089828a0161036e565b90955093506104339050606088016103ba565b9150608087013590509295509295509295565b6020808252825182820181905260009190848201906040850190845b8181101561047e57835183529284019291840191600101610462565b50909695505050505050565b6000806000806000608086880312156104a257600080fd5b85359450602086013567ffffffffffffffff8111156104c057600080fd5b6104cc8882890161036e565b90955093506104df9050604087016103ba565b949793965091946060013592915050565b60008060006040848603121561050557600080fd5b83359250602084013567ffffffffffffffff81111561052357600080fd5b61052f8682870161036e565b9497909650939450505050565b634e487b7160e01b600052604160045260246000fd5b634e487b7160e01b600052603260045260246000fd5b634e487b7160e01b600052601160045260246000fd5b60008261059b57634e487b7160e01b600052601260045260246000fd5b500490565b818103818111156105b3576105b3610568565b92915050565b80820281158282048414176105b3576105b361056856fea2646970667358221220d1637ec9dccf452f819d84cea48c4c0ca894722a6a52976d1b88822aede9e76664736f6c63430008140033",
  "linkReferences": {},
  "deployedLinkReferences": {}
}