{
  "_format": "hh-sol-artifact-1",
  "contractName": "TradingAgent",
  "sourceName": "contracts/TradingAgent.sol",
  "abi": [
    {
      "inputs": [
        {
          "internalType": "address",
          "name": "_router",
          "type": "address"
        }
      ],
      "stateMutability": "nonpayable",
      "type": "constructor"
    },
    {
      "inputs": [],
      "name": "ContractIsPaused",
      "type": "error"
    },
    {
      "inputs": [],
      "name": "ExceedsMaxTradeLimit",
      "type": "error"
    },
    {
      "inputs": [],
      "name": "InsufficientBalance",
      "type": "error"
    },
    {
      "inputs": [],
      "name": "InvalidPath",
      "type": "error"
    },
    {
      "inputs": [],
      "name": "InvalidSlippage",
      "type": "error"
    },
    {
      "inputs": [
        {
          "internalType": "address",
          "name": "owner",
          "type": "address"
        }
      ],
      "name": "OwnableInvalidOwner",
      "type": "error"
    },
    {
      "inputs": [
        {
          "internalType": "address",
          "name": "account",
          "type": "address"
        }
      ],
      "name": "OwnableUnauthorizedAccount",
      "type": "error"
    },
    {
      "inputs": [],
      "name": "ReentrancyGuardReentrantCall",
      "type": "error"
    },
    {
      "inputs": [
        {
          "internalType": "address",
          "name": "token",
          "type": "address"
        }
      ],
      "name": "SafeERC20FailedOperation",
      "type": "error"
    },
    {
      "inputs": [],
      "name": "TransferFailed",
      "type": "error"
    },
    {
      "inputs": [],
      "name": "ZeroAmount",
      "type": "error"
    },
    {
      "anonymous": false,
      "inputs": [
        {
          "indexed": false,
          "internalType": "bool",
          "name": "isPaused",
          "type": "bool"
        }
      ],
      "name": "ContractPaused",
      "type": "event"
    },
    {
      "anonymous": false,
      "inputs": [
        {
          "indexed": true,
          "internalType": "address",
          "name": "user",
          "type": "address"
        },
        {
          "indexed": true,
          "internalType": "address",
          "name": "token",
          "type": "address"
        },
        {
          "indexed": false,
          "internalType": "uint256",
          "name": "amount",
          "type": "uint256"
        }
      ],
      "name": "EmergencyWithdraw",
      "type": "event"
    },
    {
      "anonymous": false,
      "inputs": [
        {
          "indexed": true,
          "internalType": "address",
          "name": "user",
          "type": "address"
        },
        {
          "indexed": false,
          "internalType": "uint256",
          "name": "newLimit",
          "type": "uint256"
        }
      ],
      "name": "MaxTradeLimitUpdated",
      "type": "event"
    },
    {
      "anonymous": false,
      "inputs": [
        {
          "indexed": true,
          "internalType": "address",
          "name": "previousOwner",
          "type": "address"
        },
        {
          "indexed": true,
          "internalType": "address",
          "name": "newOwner",
          "type": "address"
        }
      ],
      "name": "OwnershipTransferred",
      "type": "event"
    },
    {
      "anonymous": false,
      "inputs": [
        {
          "indexed": true,
          "internalType": "address",
          "name": "user",
          "type": "address"
        },
        {
          "indexed": true,
          "internalType": "address",
          "name": "tokenIn",
          "type": "address"
        },
        {
          "indexed": true,
          "internalType": "address",
          "name": "tokenOut",
          "type": "address"
        },
        {
          "indexed": false,
          "internalType": "uint256",
          "name": "amountIn",
          "type": "uint256"
        },
        {
          "indexed": false,
          "internalType": "uint256",
          "name": "amountOut",
          "type": "uint256"
        },
        {
          "indexed": false,
          "internalType": "uint256",
          "name": "timestamp",
          "type": "uint256"
        }
      ],
      "name": "TradeExecuted",
      "type": "event"
    },
    {
      "inputs": [],
      "name": "DEADLINE_DURATION",
      "outputs": [
        {
          "internalType": "uint256",
          "name": "",
          "type": "uint256"
        }
      ],
      "stateMutability": "view",
      "type": "function"
    },
    {
      "inputs": [],
      "name": "MAX_SLIPPAGE",
      "outputs": [
        {
          "internalType": "uint256",
          "name": "",
          "type": "uint256"
        }
      ],
      "stateMutability": "view",
      "type": "function"
    },
    {
      "inputs": [],
      "name": "MIN_SLIPPAGE",
      "outputs": [
        {
          "internalType": "uint256",
          "name": "",
          "type": "uint256"
        }
      ],
      "stateMutability": "view",
      "type": "function"
    },
    {
      "inputs": [],
      "name": "WETH",
      "outputs": [
        {
          "internalType": "address",
          "name": "",
          "type": "address"
        }
      ],
      "stateMutability": "view",
      "type": "function"
    },
    {
      "inputs": [],
      "name": "defaultMaxTradeLimit",
      "outputs": [
        {
          "internalType": "uint256",
          "name": "",
          "type": "uint256"
        }
      ],
      "stateMutability": "view",
      "type": "function"
    },
    {
      "inputs": [
        {
          "internalType": "address",
          "name": "token",
          "type": "address"
        }
      ],
      "name": "emergencyWithdraw",
      "outputs": [],
      "stateMutability": "nonpayable",
      "type": "function"
    },
    {
      "inputs": [
        {
          "internalType": "address",
          "name": "tokenIn",
          "type": "address"
        },
        {
          "internalType": "address",
          "name": "tokenOut",
          "type": "address"
        },
        {
          "internalType": "uint256",
          "name": "amountIn",
          "type": "uint256"
        },
        {
          "internalType": "uint256",
          "name": "minAmountOut",
          "type": "uint256"
        }
      ],
      "name": "executeTrade",
      "outputs": [
        {
          "internalType": "uint256",
          "name": "amountOut",
          "type": "uint256"
        }
      ],
      "stateMutability": "nonpayable",
      "type": "function"
    },
    {
      "inputs": [
        {
          "internalType": "address",
          "name": "tokenOut",
          "type": "address"
        },
        {
          "internalType": "uint256",
          "name": "minAmountOut",
          "type": "uint256"
        }
      ],
      "name": "executeTradeETHForTokens",
      "outputs": [
        {
          "internalType": "uint256",
          "name": "amountOut",
          "type": "uint256"
        }
      ],
      "stateMutability": "payable",
      "type": "function"
    },
    {
      "inputs": [
        {
          "internalType": "address",
          "name": "tokenIn",
          "type": "address"
        },
        {
          "internalType": "uint256",
          "name": "amountIn",
          "type": "uint256"
        },
        {
          "internalType": "uint256",
          "name": "minAmountOut",
          "type": "uint256"
        }
      ],
      "name": "executeTradeTokensForETH",
      "outputs": [
        {
          "internalType": "uint256",
          "name": "amountOut",
          "type": "uint256"
        }
      ],
      "stateMutability": "nonpayable",
      "type": "function"
    },
    {
      "inputs": [
        {
          "internalType": "address",
          "name": "tokenIn",
          "type": "address"
        },
        {
          "internalType": "address",
          "name": "tokenOut",
          "type": "address"
        },
        {
          "internalType": "uint256",
          "name": "amountIn",
          "type": "uint256"
        }
      ],
      "name": "getExpectedOutput",
      "outputs": [
        {
          "internalType": "uint256",
          "name": "expectedOut",
          "type": "uint256"
        }
      ],
      "stateMutability": "view",
      "type": "function"
    },
    {
      "inputs": [
        {
          "internalType": "address",
          "name": "user",
          "type": "address"
        }
      ],
      "name": "getUserMaxTradeLimit",
      "outputs": [
        {
          "internalType": "uint256",
          "name": "",
          "type": "uint256"
        }
      ],
      "stateMutability": "view",
      "type": "function"
    },
    {
      "inputs": [
        {
          "internalType": "address",
          "name": "",
          "type": "address"
        }
      ],
      "name": "maxTradeLimit",
      "outputs": [
        {
          "internalType": "uint256",
          "name": "",
          "type": "uint256"
        }
      ],
      "stateMutability": "view",
      "type": "function"
    },
    {
      "inputs": [],
      "name": "owner",
      "outputs": [
        {
          "internalType": "address",
          "name": "",
          "type": "address"
        }
      ],
      "stateMutability": "view",
      "type": "function"
    },
    {
      "inputs": [],
      "name": "paused",
      "outputs": [
        {
          "internalType": "bool",
          "name": "",
          "type": "bool"
        }
      ],
      "stateMutability": "view",
      "type": "function"
    },
    {
      "inputs": [],
      "name": "renounceOwnership",
      "outputs": [],
      "stateMutability": "nonpayable",
      "type": "function"
    },
    {
      "inputs": [
        {
          "internalType": "uint256",
          "name": "newLimit",
          "type": "uint256"
        }
      ],
      "name": "setDefaultMaxTradeLimit",
      "outputs": [],
      "stateMutability": "nonpayable",
      "type": "function"
    },
    {
      "inputs": [
        {
          "internalType": "uint256",
          "name": "newLimit",
          "type": "uint256"
        }
      ],
      "name": "setMaxTradeLimit",
      "outputs": [],
      "stateMutability": "nonpayable",
      "type": "function"
    },
    {
      "inputs": [
        {
          "internalType": "bool",
          "name": "_paused",
          "type": "bool"
        }
      ],
      "name": "setPaused",
      "outputs": [],
      "stateMutability": "nonpayable",
      "type": "function"
    },
    {
      "inputs": [
        {
          "internalType": "address",
          "name": "newOwner",
          "type": "address"
        }
      ],
      "name": "transferOwnership",
      "outputs": [],
      "stateMutability": "nonpayable",
      "type": "function"
    },
    {
      "inputs": [],
      "name": "uniswapRouter",
      "outputs": [
        {
          "internalType": "contract IUniswapV2Router02",
          "name": "",
          "type": "address"
        }
      ],
      "stateMutability": "view",
      "type": "function"
    },
    {
      "stateMutability": "payable",
      "type": "receive"
    }
  ],
  "bytecode": "0x60c0604052678ac7230489e800006003553480156200001d57600080fd5b5060405162001ad338038062001ad3833981016040819052620000409162000198565b600160005533806200006d57604051631e4fbdf760e01b8152600060048201526024015b60405180910390fd5b620000788162000146565b506001600160a01b038116620000c25760405162461bcd60e51b815260206004820152600e60248201526d24b73b30b634b2103937baba32b960911b604482015260640162000064565b6001600160a01b0381166080819052604080516315ab88c960e31b8152905163ad5c4648916004808201926020929091908290030181865afa1580156200010d573d6000803e3d6000fd5b505050506040513d601f19601f8201168201806040525081019062000133919062000198565b6001600160a01b031660a05250620001ca565b600180546001600160a01b038381166001600160a01b0319831681179093556040519116919082907f8be0079c531659141344cd1fd0a4f28419497f9722a3daafe3b4186f6b6457e090600090a35050565b600060208284031215620001ab57600080fd5b81516001600160a01b0381168114620001c357600080fd5b9392505050565b60805160a0516118966200023d600039600081816102f401528181610479015281816105cc01528181610b510152610c67015260008181610228015281816104fa0152818161074d01528181610ad501528181610b9e01528181610dab01528181610e54015261127501526118966000f3fe6080604052600436106101235760003560e01c80638da5cb5b116100a0578063c30b779d11610064578063c30b779d14610356578063f2fde38b1461036c578063f415fc0f1461038c578063f9759518146103ac578063fc35bbf6146103c257600080fd5b80638da5cb5b146102a45780639ab4860b146102c2578063ad5c4648146102e2578063b2640b0f14610316578063b90786161461033657600080fd5b80636ff1c9bc116100e75780636ff1c9bc146101e1578063715018a614610201578063735de9f7146102165780638501a24e14610262578063854c2a101461028f57600080fd5b8063148135931461012f57806315724ee71461015557806316c38b3c146101755780634d9f7abd146101975780635c975abb146101b757600080fd5b3661012a57005b600080fd5b61014261013d3660046114e9565b6103d8565b6040519081526020015b60405180910390f35b34801561016157600080fd5b50610142610170366004611513565b61065e565b34801561018157600080fd5b5061019561019036600461152e565b610669565b005b3480156101a357600080fd5b506101426101b2366004611550565b6106b8565b3480156101c357600080fd5b506004546101d19060ff1681565b604051901515815260200161014c565b3480156101ed57600080fd5b506101956101fc366004611513565b6107fe565b34801561020d57600080fd5b506101956109d0565b34801561022257600080fd5b5061024a7f000000000000000000000000000000000000000000000000000000000000000081565b6040516001600160a01b03909116815260200161014c565b34801561026e57600080fd5b5061014261027d366004611513565b60026020526000908152604090205481565b34801561029b57600080fd5b50610142603281565b3480156102b057600080fd5b506001546001600160a01b031661024a565b3480156102ce57600080fd5b506101956102dd36600461158c565b6109e4565b3480156102ee57600080fd5b5061024a7f000000000000000000000000000000000000000000000000000000000000000081565b34801561032257600080fd5b506101426103313660046115a5565b610a33565b34801561034257600080fd5b506101426103513660046115d8565b610cfd565b34801561036257600080fd5b5061014260035481565b34801561037857600080fd5b50610195610387366004611513565b610f9b565b34801561039857600080fd5b506101956103a736600461158c565b610fdb565b3480156103b857600080fd5b506101426101f481565b3480156103ce57600080fd5b5061014261012c81565b60006103e2610fe8565b60045460ff1615610406576040516306d39fcd60e41b815260040160405180910390fd5b348060000361042857604051631f2a200560e01b815260040160405180910390fd5b600061043333611012565b9050803411156104565760405163858668b960e01b815260040160405180910390fd5b6040805160028082526060820183526000926020830190803683370190505090507f0000000000000000000000000000000000000000000000000000000000000000816000815181106104ab576104ab611630565b60200260200101906001600160a01b031690816001600160a01b03168152505085816001815181106104df576104df611630565b6001600160a01b0392831660209182029290920101526000907f000000000000000000000000000000000000000000000000000000000000000016637ff36ab53488853361052f61012c4261165c565b6040518663ffffffff1660e01b815260040161054e94939291906116b3565b60006040518083038185885af115801561056c573d6000803e3d6000fd5b50505050506040513d6000823e601f3d908101601f1916820160405261059591908101906116e8565b905080600182516105a691906117a6565b815181106105b6576105b6611630565b60200260200101519450866001600160a01b03167f00000000000000000000000000000000000000000000000000000000000000006001600160a01b0316336001600160a01b03167f6d2a49dc58cbd626bd59e1de8c53b7f89e2d4593ffa0c77aaadb93d227fb077a348942604051610642939291909283526020830191909152604082015260600190565b60405180910390a4505050506106586001600055565b92915050565b600061065882611012565b610671611038565b6004805460ff19168215159081179091556040519081527f752d7e161ff5146f80e3820893176eb40532811e5e20400dfdde57455213706a9060200160405180910390a150565b6040805160028082526060820183526000928392919060208301908036833701905050905084816000815181106106f1576106f1611630565b60200260200101906001600160a01b031690816001600160a01b031681525050838160018151811061072557610725611630565b6001600160a01b03928316602091820292909201015260405163d06ca61f60e01b81526000917f0000000000000000000000000000000000000000000000000000000000000000169063d06ca61f9061078490879086906004016117b9565b600060405180830381865afa1580156107a1573d6000803e3d6000fd5b505050506040513d6000823e601f3d908101601f191682016040526107c991908101906116e8565b905080600182516107da91906117a6565b815181106107ea576107ea611630565b6020026020010151925050505b9392505050565b610806610fe8565b6001600160a01b0381166108df5747600081900361083757604051631e9acf1760e31b815260040160405180910390fd5b604051600090339083908381818185875af1925050503d8060008114610879576040519150601f19603f3d011682016040523d82523d6000602084013e61087e565b606091505b50509050806108a0576040516312171d8360e31b815260040160405180910390fd5b60405182815260009033907ff24ef89f38eadc1bde50701ad6e4d6d11a2dc24f7cf834a486991f38833285049060200160405180910390a350506109c3565b6040516370a0823160e01b81523060048201526000906001600160a01b038316906370a0823190602401602060405180830381865afa158015610926573d6000803e3d6000fd5b505050506040513d601f19601f8201168201806040525081019061094a91906117d2565b90508060000361096d57604051631e9acf1760e31b815260040160405180910390fd5b6109816001600160a01b0383163383611065565b6040518181526001600160a01b0383169033907ff24ef89f38eadc1bde50701ad6e4d6d11a2dc24f7cf834a486991f38833285049060200160405180910390a3505b6109cd6001600055565b50565b6109d8611038565b6109e260006110c9565b565b3360008181526002602052604090819020839055517f69f580ed9ea7e86f66fae476ffcb7afd375b0c8e44adccc9058237e3255e2be890610a289084815260200190565b60405180910390a250565b6000610a3d610fe8565b60045460ff1615610a61576040516306d39fcd60e41b815260040160405180910390fd5b8280600003610a8357604051631f2a200560e01b815260040160405180910390fd5b6000610a8e33611012565b905080851115610ab15760405163858668b960e01b815260040160405180910390fd5b610ac66001600160a01b03871633308861111b565b610afa6001600160a01b0387167f00000000000000000000000000000000000000000000000000000000000000008761115a565b6040805160028082526060820183526000926020830190803683370190505090508681600081518110610b2f57610b2f611630565b60200260200101906001600160a01b031690816001600160a01b0316815250507f000000000000000000000000000000000000000000000000000000000000000081600181518110610b8357610b83611630565b6001600160a01b0392831660209182029290920101526000907f0000000000000000000000000000000000000000000000000000000000000000166318cbafe588888533610bd361012c4261165c565b6040518663ffffffff1660e01b8152600401610bf39594939291906117eb565b6000604051808303816000875af1158015610c12573d6000803e3d6000fd5b505050506040513d6000823e601f3d908101601f19168201604052610c3a91908101906116e8565b90508060018251610c4b91906117a6565b81518110610c5b57610c5b611630565b602002602001015194507f00000000000000000000000000000000000000000000000000000000000000006001600160a01b0316886001600160a01b0316336001600160a01b03167f6d2a49dc58cbd626bd59e1de8c53b7f89e2d4593ffa0c77aaadb93d227fb077a8a8942604051610ce7939291909283526020830191909152604082015260600190565b60405180910390a4505050506107f76001600055565b6000610d07610fe8565b60045460ff1615610d2b576040516306d39fcd60e41b815260040160405180910390fd5b8280600003610d4d57604051631f2a200560e01b815260040160405180910390fd5b6000610d5833611012565b905080851115610d7b5760405163858668b960e01b815260040160405180910390fd5b610d87878787876111e4565b610d9c6001600160a01b03881633308861111b565b610dd06001600160a01b0388167f00000000000000000000000000000000000000000000000000000000000000008761115a565b6040805160028082526060820183526000926020830190803683370190505090508781600081518110610e0557610e05611630565b60200260200101906001600160a01b031690816001600160a01b0316815250508681600181518110610e3957610e39611630565b6001600160a01b0392831660209182029290920101526000907f0000000000000000000000000000000000000000000000000000000000000000166338ed173988888533610e8961012c4261165c565b6040518663ffffffff1660e01b8152600401610ea99594939291906117eb565b6000604051808303816000875af1158015610ec8573d6000803e3d6000fd5b505050506040513d6000823e601f3d908101601f19168201604052610ef091908101906116e8565b90508060018251610f0191906117a6565b81518110610f1157610f11611630565b60200260200101519450876001600160a01b0316896001600160a01b0316336001600160a01b03167f6d2a49dc58cbd626bd59e1de8c53b7f89e2d4593ffa0c77aaadb93d227fb077a8a8942604051610f7d939291909283526020830191909152604082015260600190565b60405180910390a450505050610f936001600055565b949350505050565b610fa3611038565b6001600160a01b038116610fd257604051631e4fbdf760e01b8152600060048201526024015b60405180910390fd5b6109cd816110c9565b610fe3611038565b600355565b60026000540361100b57604051633ee5aeb560e01b815260040160405180910390fd5b6002600055565b6001600160a01b03811660009081526002602052604081205480610658576003546107f7565b6001546001600160a01b031633146109e25760405163118cdaa760e01b8152336004820152602401610fc9565b6040516001600160a01b038381166024830152604482018390526110c491859182169063a9059cbb906064015b604051602081830303815290604052915060e01b6020820180516001600160e01b03838183161783525050505061137d565b505050565b600180546001600160a01b038381166001600160a01b0319831681179093556040519116919082907f8be0079c531659141344cd1fd0a4f28419497f9722a3daafe3b4186f6b6457e090600090a35050565b6040516001600160a01b0384811660248301528381166044830152606482018390526111549186918216906323b872dd90608401611092565b50505050565b604051636eb1769f60e11b81523060048201526001600160a01b0383811660248301526000919085169063dd62ed3e90604401602060405180830381865afa1580156111aa573d6000803e3d6000fd5b505050506040513d601f19601f820116820180604052508101906111ce91906117d2565b905061115484846111df858561165c565b6113ee565b604080516002808252606082018352600092602083019080368337019050509050848160008151811061121957611219611630565b60200260200101906001600160a01b031690816001600160a01b031681525050838160018151811061124d5761124d611630565b6001600160a01b03928316602091820292909201015260405163d06ca61f60e01b81526000917f0000000000000000000000000000000000000000000000000000000000000000169063d06ca61f906112ac90879086906004016117b9565b600060405180830381865afa1580156112c9573d6000803e3d6000fd5b505050506040513d6000823e601f3d908101601f191682016040526112f191908101906116e8565b90506000816001835161130491906117a6565b8151811061131457611314611630565b60200260200101519050600081858361132d91906117a6565b61133990612710611827565b611343919061183e565b9050603281108061135557506101f481115b156113735760405163334ee9a160e01b815260040160405180910390fd5b5050505050505050565b600080602060008451602086016000885af1806113a0576040513d6000823e3d81fd5b50506000513d915081156113b85780600114156113c5565b6001600160a01b0384163b155b1561115457604051635274afe760e01b81526001600160a01b0385166004820152602401610fc9565b604080516001600160a01b038416602482015260448082018490528251808303909101815260649091019091526020810180516001600160e01b031663095ea7b360e01b17905261143f848261147e565b611154576040516001600160a01b0384811660248301526000604483015261147491869182169063095ea7b390606401611092565b611154848261137d565b6000806000806020600086516020880160008a5af192503d915060005190508280156114c3575081156114b457806001146114c3565b6000866001600160a01b03163b115b9695505050505050565b80356001600160a01b03811681146114e457600080fd5b919050565b600080604083850312156114fc57600080fd5b611505836114cd565b946020939093013593505050565b60006020828403121561152557600080fd5b6107f7826114cd565b60006020828403121561154057600080fd5b813580151581146107f757600080fd5b60008060006060848603121561156557600080fd5b61156e846114cd565b925061157c602085016114cd565b9150604084013590509250925092565b60006020828403121561159e57600080fd5b5035919050565b6000806000606084860312156115ba57600080fd5b6115c3846114cd565b95602085013595506040909401359392505050565b600080600080608085870312156115ee57600080fd5b6115f7856114cd565b9350611605602086016114cd565b93969395505050506040820135916060013590565b634e487b7160e01b600052604160045260246000fd5b634e487b7160e01b600052603260045260246000fd5b634e487b7160e01b600052601160045260246000fd5b8082018082111561065857610658611646565b600081518084526020808501945080840160005b838110156116a85781516001600160a01b031687529582019590820190600101611683565b509495945050505050565b8481526080602082015260006116cc608083018661166f565b6001600160a01b03949094166040830152506060015292915050565b600060208083850312156116fb57600080fd5b825167ffffffffffffffff8082111561171357600080fd5b818501915085601f83011261172757600080fd5b8151818111156117395761173961161a565b8060051b604051601f19603f8301168101818110858211171561175e5761175e61161a565b60405291825284820192508381018501918883111561177c57600080fd5b938501935b8285101561179a57845184529385019392850192611781565b98975050505050505050565b8181038181111561065857610658611646565b828152604060208201526000610f93604083018461166f565b6000602082840312156117e457600080fd5b5051919050565b85815284602082015260a06040820152600061180a60a083018661166f565b6001600160a01b0394909416606083015250608001529392505050565b808202811582820484141761065857610658611646565b60008261185b57634e487b7160e01b600052601260045260246000fd5b50049056fea2646970667358221220e668a8ba53d33c7b6c80e62f9d21db35422ad3d203c318992e23c3fe524d14ad64736f6c63430008140033",
  "linkReferences": {},
  "deployedLinkReferences": {}
}